{
  "contractName": "SrvExchange",
  "abi": [
    {
      "constant": true,
      "inputs": [
        {
          "name": "addr_node",
          "type": "address"
        }
      ],
      "name": "getAccount",
      "outputs": [
        {
          "name": "",
          "type": "uint256"
        },
        {
          "name": "",
          "type": "uint256"
        },
        {
          "name": "",
          "type": "uint256"
        }
      ],
      "payable": false,
      "stateMutability": "view",
      "type": "function"
    },
    {
      "constant": false,
      "inputs": [
        {
          "name": "addr_node",
          "type": "address"
        }
      ],
      "name": "initAccount",
      "outputs": [
        {
          "name": "",
          "type": "bool"
        }
      ],
      "payable": false,
      "stateMutability": "nonpayable",
      "type": "function"
    },
    {
      "constant": false,
      "inputs": [
        {
          "name": "addr_node",
          "type": "address"
        },
        {
          "name": "status",
          "type": "uint256"
        },
        {
          "name": "balance",
          "type": "uint256"
        }
      ],
      "name": "setAccount",
      "outputs": [
        {
          "name": "",
          "type": "bool"
        }
      ],
      "payable": false,
      "stateMutability": "nonpayable",
      "type": "function"
    },
    {
      "constant": true,
      "inputs": [],
      "name": "getService",
      "outputs": [
        {
          "name": "dealer_uid",
          "type": "uint256"
        },
        {
          "name": "dealer_balance",
          "type": "uint256"
        },
        {
          "name": "provider_VID",
          "type": "address"
        },
        {
          "name": "provider_serviceInfo",
          "type": "string"
        },
        {
          "name": "provider_status",
          "type": "uint256"
        },
        {
          "name": "recipient_VID",
          "type": "address"
        },
        {
          "name": "recipient_serviceInfo",
          "type": "string"
        },
        {
          "name": "recipient_status",
          "type": "uint256"
        }
      ],
      "payable": false,
      "stateMutability": "view",
      "type": "function"
    },
    {
      "constant": false,
      "inputs": [],
      "name": "initService",
      "outputs": [
        {
          "name": "",
          "type": "bool"
        }
      ],
      "payable": true,
      "stateMutability": "payable",
      "type": "function"
    },
    {
      "constant": false,
      "inputs": [
        {
          "name": "addr_node",
          "type": "address"
        },
        {
          "name": "serviceInfo",
          "type": "string"
        }
      ],
      "name": "updateProvider",
      "outputs": [
        {
          "name": "",
          "type": "bool"
        }
      ],
      "payable": false,
      "stateMutability": "nonpayable",
      "type": "function"
    },
    {
      "constant": false,
      "inputs": [
        {
          "name": "addr_node",
          "type": "address"
        },
        {
          "name": "serviceInfo",
          "type": "string"
        }
      ],
      "name": "updateRecipient",
      "outputs": [
        {
          "name": "",
          "type": "bool"
        }
      ],
      "payable": false,
      "stateMutability": "nonpayable",
      "type": "function"
    },
    {
      "constant": false,
      "inputs": [
        {
          "name": "addr_node",
          "type": "address"
        },
        {
          "name": "time_currency",
          "type": "uint256"
        }
      ],
      "name": "recipient_deposit",
      "outputs": [
        {
          "name": "",
          "type": "bool"
        }
      ],
      "payable": false,
      "stateMutability": "nonpayable",
      "type": "function"
    },
    {
      "constant": false,
      "inputs": [
        {
          "name": "addr_node",
          "type": "address"
        }
      ],
      "name": "recipient_withdraw",
      "outputs": [
        {
          "name": "",
          "type": "bool"
        }
      ],
      "payable": false,
      "stateMutability": "nonpayable",
      "type": "function"
    },
    {
      "constant": false,
      "inputs": [
        {
          "name": "addr_node",
          "type": "address"
        }
      ],
      "name": "provider_confirm",
      "outputs": [
        {
          "name": "",
          "type": "bool"
        }
      ],
      "payable": false,
      "stateMutability": "nonpayable",
      "type": "function"
    },
    {
      "constant": false,
      "inputs": [
        {
          "name": "addr_node",
          "type": "address"
        }
      ],
      "name": "service_commit",
      "outputs": [
        {
          "name": "",
          "type": "bool"
        }
      ],
      "payable": false,
      "stateMutability": "nonpayable",
      "type": "function"
    },
    {
      "constant": false,
      "inputs": [
        {
          "name": "addr_node",
          "type": "address"
        }
      ],
      "name": "service_payment",
      "outputs": [
        {
          "name": "",
          "type": "bool"
        }
      ],
      "payable": false,
      "stateMutability": "nonpayable",
      "type": "function"
    }
  ],
  "bytecode": "0x6060604052341561000f57600080fd5b61167c8061001e6000396000f3006060604052600436106100ba576000357c0100000000000000000000000000000000000000000000000000000000900463ffffffff1680630362ab61146100bf5780631660c22a146101105780631bff5f50146101a4578063572f897a146101f557806357630ac5146102465780635a6c4158146102a95780636cdafa58146102fa578063910e856514610476578063992c393e146104d0578063e30909b9146104f2578063ec81bb5914610586578063fbcbc0f1146105d7575b600080fd5b34156100ca57600080fd5b6100f6600480803573ffffffffffffffffffffffffffffffffffffffff16906020019091905050610632565b604051808215151515815260200191505060405180910390f35b341561011b57600080fd5b61018a600480803573ffffffffffffffffffffffffffffffffffffffff1690602001909190803590602001908201803590602001908080601f01602080910402602001604051908101604052809392919081815260200183838082843782019150505050505091905050610a33565b604051808215151515815260200191505060405180910390f35b34156101af57600080fd5b6101db600480803573ffffffffffffffffffffffffffffffffffffffff16906020019091905050610ad2565b604051808215151515815260200191505060405180910390f35b341561020057600080fd5b61022c600480803573ffffffffffffffffffffffffffffffffffffffff16906020019091905050610b6f565b604051808215151515815260200191505060405180910390f35b341561025157600080fd5b61028f600480803573ffffffffffffffffffffffffffffffffffffffff16906020019091908035906020019091908035906020019091905050610c2a565b604051808215151515815260200191505060405180910390f35b34156102b457600080fd5b6102e0600480803573ffffffffffffffffffffffffffffffffffffffff16906020019091905050610d68565b604051808215151515815260200191505060405180910390f35b341561030557600080fd5b61030d610e9d565b604051808981526020018881526020018773ffffffffffffffffffffffffffffffffffffffff1673ffffffffffffffffffffffffffffffffffffffff168152602001806020018681526020018573ffffffffffffffffffffffffffffffffffffffff1673ffffffffffffffffffffffffffffffffffffffff16815260200180602001848152602001838103835288818151815260200191508051906020019080838360005b838110156103cd5780820151818401526020810190506103b2565b50505050905090810190601f1680156103fa5780820380516001836020036101000a031916815260200191505b50838103825285818151815260200191508051906020019080838360005b83811015610433578082015181840152602081019050610418565b50505050905090810190601f1680156104605780820380516001836020036101000a031916815260200191505b509a505050505050505050505060405180910390f35b341561048157600080fd5b6104b6600480803573ffffffffffffffffffffffffffffffffffffffff1690602001909190803590602001909190505061106f565b604051808215151515815260200191505060405180910390f35b6104d861112b565b604051808215151515815260200191505060405180910390f35b34156104fd57600080fd5b61056c600480803573ffffffffffffffffffffffffffffffffffffffff1690602001909190803590602001908201803590602001908080601f016020809104026020016040519081016040528093929190818152602001838380828437820191505050505050919050506112ed565b604051808215151515815260200191505060405180910390f35b341561059157600080fd5b6105bd600480803573ffffffffffffffffffffffffffffffffffffffff1690602001909190505061138d565b604051808215151515815260200191505060405180910390f35b34156105e257600080fd5b61060e600480803573ffffffffffffffffffffffffffffffffffffffff169060200190919050506114bc565b60405180848152602001838152602001828152602001935050505060405180910390f35b6000600360026003015414801561064e57506003600660030154145b15610a29578173ffffffffffffffffffffffffffffffffffffffff16600260010160009054906101000a900473ffffffffffffffffffffffffffffffffffffffff1673ffffffffffffffffffffffffffffffffffffffff16148061070257508173ffffffffffffffffffffffffffffffffffffffff16600660010160009054906101000a900473ffffffffffffffffffffffffffffffffffffffff1673ffffffffffffffffffffffffffffffffffffffff16145b15610a28576001600a6000600260010160009054906101000a900473ffffffffffffffffffffffffffffffffffffffff1673ffffffffffffffffffffffffffffffffffffffff1673ffffffffffffffffffffffffffffffffffffffff16815260200190815260200160002060000160008282540192505081905550600060010154600a6000600260010160009054906101000a900473ffffffffffffffffffffffffffffffffffffffff1673ffffffffffffffffffffffffffffffffffffffff1673ffffffffffffffffffffffffffffffffffffffff168152602001908152602001600020600101600082825401925050819055506001600a6000600660010160009054906101000a900473ffffffffffffffffffffffffffffffffffffffff1673ffffffffffffffffffffffffffffffffffffffff1673ffffffffffffffffffffffffffffffffffffffff16815260200190815260200160002060000160008282540192505081905550600060010154600a6000600660010160009054906101000a900473ffffffffffffffffffffffffffffffffffffffff1673ffffffffffffffffffffffffffffffffffffffff1673ffffffffffffffffffffffffffffffffffffffff16815260200190815260200160002060010160008282540392505081905550600160008001600082825401925050819055506000806001018190555060016002600001600082825401925050819055506000600260010160006101000a81548173ffffffffffffffffffffffffffffffffffffffff021916908373ffffffffffffffffffffffffffffffffffffffff1602179055506020604051908101604052806000815250600280019080519060200190610985929190611597565b50600060026003018190555060016006600001600082825401925050819055506000600660010160006101000a81548173ffffffffffffffffffffffffffffffffffffffff021916908373ffffffffffffffffffffffffffffffffffffffff160217905550602060405190810160405280600081525060066002019080519060200190610a13929190611597565b50600060066003018190555060019050610a2e565b5b600090505b919050565b6000806002600301541415610ac757600160026000016000828254019250508190555082600260010160006101000a81548173ffffffffffffffffffffffffffffffffffffffff021916908373ffffffffffffffffffffffffffffffffffffffff16021790555081600280019080519060200190610ab2929190611597565b50600160026003018190555060019050610acc565b600090505b92915050565b60008173ffffffffffffffffffffffffffffffffffffffff16600260010160009054906101000a900473ffffffffffffffffffffffffffffffffffffffff1673ffffffffffffffffffffffffffffffffffffffff16148015610b3957506001600260030154145b15610b655760016002600001600082825401925050819055506002806003018190555060019050610b6a565b600090505b919050565b60008173ffffffffffffffffffffffffffffffffffffffff16600660010160009054906101000a900473ffffffffffffffffffffffffffffffffffffffff1673ffffffffffffffffffffffffffffffffffffffff16148015610bd657506002600660030154145b15610c205760016000800160008282540192505081905550600080600101819055506001600660000160008282540192505081905550600160066003018190555060019050610c25565b600090505b919050565b60003373ffffffffffffffffffffffffffffffffffffffff16736a1ed582b736ae088d2f16f9f8b8fa0a915b816573ffffffffffffffffffffffffffffffffffffffff161415610d5c576001600a60008673ffffffffffffffffffffffffffffffffffffffff1673ffffffffffffffffffffffffffffffffffffffff1681526020019081526020016000206000016000828254019250508190555082600a60008673ffffffffffffffffffffffffffffffffffffffff1673ffffffffffffffffffffffffffffffffffffffff1681526020019081526020016000206002018190555081600a60008673ffffffffffffffffffffffffffffffffffffffff1673ffffffffffffffffffffffffffffffffffffffff1681526020019081526020016000206001018190555060019050610d61565b600090505b9392505050565b60003373ffffffffffffffffffffffffffffffffffffffff16736a1ed582b736ae088d2f16f9f8b8fa0a915b816573ffffffffffffffffffffffffffffffffffffffff161415610e93576000600a60008473ffffffffffffffffffffffffffffffffffffffff1673ffffffffffffffffffffffffffffffffffffffff168152602001908152602001600020600001819055506000600a60008473ffffffffffffffffffffffffffffffffffffffff1673ffffffffffffffffffffffffffffffffffffffff168152602001908152602001600020600101819055506000600a60008473ffffffffffffffffffffffffffffffffffffffff1673ffffffffffffffffffffffffffffffffffffffff1681526020019081526020016000206002018190555060019050610e98565b600090505b919050565b6000806000610eaa611617565b600080610eb5611617565b6000806000015497506000600101549650600260010160009054906101000a900473ffffffffffffffffffffffffffffffffffffffff169550600280018054600181600116156101000203166002900480601f016020809104026020016040519081016040528092919081815260200182805460018160011615610100020316600290048015610f865780601f10610f5b57610100808354040283529160200191610f86565b820191906000526020600020905b815481529060010190602001808311610f6957829003601f168201915b505050505094506002600301549350600660010160009054906101000a900473ffffffffffffffffffffffffffffffffffffffff16925060066002018054600181600116156101000203166002900480601f0160208091040260200160405190810160405280929190818152602001828054600181600116156101000203166002900480156110565780601f1061102b57610100808354040283529160200191611056565b820191906000526020600020905b81548152906001019060200180831161103957829003601f168201915b5050505050915060066003015490509091929394959697565b60008273ffffffffffffffffffffffffffffffffffffffff16600660010160009054906101000a900473ffffffffffffffffffffffffffffffffffffffff1673ffffffffffffffffffffffffffffffffffffffff161480156110d657506001600660030154145b156111205760016000800160008282540192505081905550816000600101819055506001600660000160008282540192505081905550600260066003018190555060019050611125565b600090505b92915050565b60003373ffffffffffffffffffffffffffffffffffffffff16736a1ed582b736ae088d2f16f9f8b8fa0a915b816573ffffffffffffffffffffffffffffffffffffffff1614156112e557600160008001819055506000806001018190555060016002600001819055506000600260010160006101000a81548173ffffffffffffffffffffffffffffffffffffffff021916908373ffffffffffffffffffffffffffffffffffffffff1602179055506040805190810160405280600581526020017f656d707479000000000000000000000000000000000000000000000000000000815250600280019080519060200190611226929190611597565b50600060026003018190555060016006600001819055506000600660010160006101000a81548173ffffffffffffffffffffffffffffffffffffffff021916908373ffffffffffffffffffffffffffffffffffffffff1602179055506040805190810160405280600581526020017f656d707479000000000000000000000000000000000000000000000000000000815250600660020190805190602001906112d0929190611597565b506000600660030181905550600190506112ea565b600090505b90565b600080600660030154141561138257600160066000016000828254019250508190555082600660010160006101000a81548173ffffffffffffffffffffffffffffffffffffffff021916908373ffffffffffffffffffffffffffffffffffffffff160217905550816006600201908051906020019061136d929190611597565b50600160066003018190555060019050611387565b600090505b92915050565b60008173ffffffffffffffffffffffffffffffffffffffff16600260010160009054906101000a900473ffffffffffffffffffffffffffffffffffffffff1673ffffffffffffffffffffffffffffffffffffffff161480156113f3575060028060030154145b156114205760016002600001600082825401925050819055506003600260030181905550600190506114b7565b8173ffffffffffffffffffffffffffffffffffffffff16600660010160009054906101000a900473ffffffffffffffffffffffffffffffffffffffff1673ffffffffffffffffffffffffffffffffffffffff1614801561148557506002600660030154145b156114b25760016006600001600082825401925050819055506003600660030181905550600190506114b7565b600090505b919050565b6000806000600a60008573ffffffffffffffffffffffffffffffffffffffff1673ffffffffffffffffffffffffffffffffffffffff16815260200190815260200160002060000154600a60008673ffffffffffffffffffffffffffffffffffffffff1673ffffffffffffffffffffffffffffffffffffffff16815260200190815260200160002060010154600a60008773ffffffffffffffffffffffffffffffffffffffff1673ffffffffffffffffffffffffffffffffffffffff168152602001908152602001600020600201549250925092509193909250565b828054600181600116156101000203166002900490600052602060002090601f016020900481019282601f106115d857805160ff1916838001178555611606565b82800160010185558215611606579182015b828111156116055782518255916020019190600101906115ea565b5b509050611613919061162b565b5090565b602060405190810160405280600081525090565b61164d91905b80821115611649576000816000905550600101611631565b5090565b905600a165627a7a723058209973d1deb56a5d63f1cca44cc89afd558ebb2d30c84b08a2b8888ccc9bf7e72a0029",
  "source": "pragma solidity ^0.4.18;\n\ncontract SrvExchange {\n    /*\n\t\tDefine struct to represent account of each participant.\n\t*/\n\n    struct Account {\n        uint256 uid; // auto incremental number.\n        uint256 balance; // balance to record time currency\n        uint256 status; // current status: 0-Initialized; 1-active; 2-inactive\n    }\n\n    /*\n\t\tDefine struct to represent dealer.\n\t*/\n    struct SrvDealer {\n        uint256 uid; // auto incremental number.\n        uint256 balance; // balance to record time currency for payment\n    }\n\n    /*\n\t\tDefine struct to represent service provider.\n\t*/\n    struct SrvProvider {\n        uint256 uid; // auto incremental number.\n        address VID; // provider's VID, we use account address.\n        string serviceInfo; // service information by provider\n        uint256 status; // current status: 0-Initialized; 1-Registered; 2-Confirmed; 3-Committed\n    }\n\n    /*\n\t\tDefine struct to represent service recipient.\n\t*/\n    struct SrvRecipient {\n        uint256 uid; // auto incremental number.\n        address VID; // recipient's VID, we use account address.\n        string serviceInfo; // service information by recipient\n        uint256 status; // current status: 0-Initialized; 1-Registered; 2-Confirmed; 3-Committed\n    }\n\n    // Global state variables\n    address private constant supervisor =\n        0x6A1ed582B736AE088D2f16f9F8b8fa0a915b8165;\n\n    // initialize struct object\n    SrvDealer private dealer;\n    SrvProvider private provider;\n    SrvRecipient private recipient;\n\n    mapping(address => Account) TB_account; // associate with unique address with account data\n\n    //====================================== Account procedures =========================================\n    /* \n\t\tfunction: query TB_account data given address\n\t*/\n    function getAccount(address addr_node)\n        public\n        constant\n        returns (\n            uint256,\n            uint256,\n            uint256\n        )\n    {\n        return (\n            TB_account[addr_node].uid,\n            TB_account[addr_node].balance,\n            TB_account[addr_node].status\n        );\n    }\n\n    /*\n\tFunction: Initilized TB_account data given address.\n\t*/\n    function initAccount(address addr_node) public returns (bool) {\n        if (supervisor == msg.sender) {\n            // initialize Vzone_master node data\n            TB_account[addr_node].uid = 0;\n            TB_account[addr_node].balance = 0;\n            TB_account[addr_node].status = 0;\n\n            return true;\n        }\n        return false;\n    }\n\n    /*\n\tFunction: Set TB_account status and balance given address.\n\t*/\n    function setAccount(\n        address addr_node,\n        uint256 status,\n        uint256 balance\n    ) public returns (bool) {\n        if (supervisor == msg.sender) {\n            // increase uid for each update\n            TB_account[addr_node].uid += 1;\n            // set status and balance\n            TB_account[addr_node].status = status;\n            TB_account[addr_node].balance = balance;\n\n            return true;\n        }\n        return false;\n    }\n\n    //====================================== service exchange procedures =========================================\n\n    /* \n\t\tfunction: query registered service data\n\t*/\n    function getService()\n        public\n        constant\n        returns (\n            uint256 dealer_uid,\n            uint256 dealer_balance,\n            address provider_VID,\n            string provider_serviceInfo,\n            uint256 provider_status,\n            address recipient_VID,\n            string recipient_serviceInfo,\n            uint256 recipient_status\n        )\n    {\n        dealer_uid = dealer.uid;\n        dealer_balance = dealer.balance;\n        provider_VID = provider.VID;\n        provider_serviceInfo = provider.serviceInfo;\n        provider_status = provider.status;\n        recipient_VID = recipient.VID;\n        recipient_serviceInfo = recipient.serviceInfo;\n        recipient_status = recipient.status;\n    }\n\n    /* \n\t\tfunction: initialize service data\n\t*/\n    function initService() public payable returns (bool) {\n        if (supervisor == msg.sender) {\n            // initialize dealer\n            dealer.uid = 1;\n            dealer.balance = 0;\n\n            // initialize provider\n            provider.uid = 1;\n            provider.VID = address(0);\n            provider.serviceInfo = \"empty\";\n            provider.status = 0;\n\n            // initialize recipient\n            recipient.uid = 1;\n            recipient.VID = address(0);\n            recipient.serviceInfo = \"empty\";\n            recipient.status = 0;\n\n            return true;\n        }\n        return false;\n    }\n\n    /*\n\tFunction: Update provider data given address.\n\t*/\n    function updateProvider(address addr_node, string serviceInfo)\n        public\n        returns (bool)\n    {\n        if (provider.status == 0) {\n            // update provider data\n            provider.uid += 1;\n            provider.VID = addr_node;\n            provider.serviceInfo = serviceInfo;\n\n            // set provider as Registered\n            provider.status = 1;\n\n            return true;\n        }\n        return false;\n    }\n\n    /*\n\tFunction: Update recipient data given address.\n\t*/\n    function updateRecipient(address addr_node, string serviceInfo)\n        public\n        returns (bool)\n    {\n        if (recipient.status == 0) {\n            // update recipient data\n            recipient.uid += 1;\n            recipient.VID = addr_node;\n            recipient.serviceInfo = serviceInfo;\n\n            // set recipient as Registered\n            recipient.status = 1;\n\n            return true;\n        }\n        return false;\n    }\n\n    /*\n\tFunction: set recipient deposit time currency into dealer balance.\n\t*/\n    function recipient_deposit(address addr_node, uint256 time_currency)\n        public\n        returns (bool)\n    {\n        //check if node is valid recipient and current state is Registered\n        if ((recipient.VID == addr_node) && (recipient.status == 1)) {\n            // update dealer data\n            dealer.uid += 1;\n            dealer.balance = time_currency;\n\n            // set recipient as Confirmed\n            recipient.uid += 1;\n            recipient.status = 2;\n\n            return true;\n        }\n        return false;\n    }\n\n    /*\n\tFunction: remove recipient time currency from dealer balance.\n\t*/\n    function recipient_withdraw(address addr_node) public returns (bool) {\n        //check if node is valid recipient and current state is Registered\n        if ((recipient.VID == addr_node) && (recipient.status == 2)) {\n            // update dealer data\n            dealer.uid += 1;\n            dealer.balance = 0;\n\n            // set recipient as Registered\n            recipient.uid += 1;\n            recipient.status = 1;\n            return true;\n        }\n        return false;\n    }\n\n    /*\n\tFunction: set provider as Confirmed.\n\t*/\n    function provider_confirm(address addr_node) public returns (bool) {\n        //check if node is valid provider and current state is Registered\n        if ((provider.VID == addr_node) && (provider.status == 1)) {\n            // set provider as Confirmed\n            provider.uid += 1;\n            provider.status = 2;\n\n            return true;\n        }\n        return false;\n    }\n\n    /*\n\tFunction: set service Committed state given address.\n\t*/\n    function service_commit(address addr_node) public returns (bool) {\n        //check if both provider and recipient are Confirmed\n        if ((provider.VID == addr_node) && (provider.status == 2)) {\n            // set provider as Committed\n            provider.uid += 1;\n            provider.status = 3;\n            return true;\n        }\n\n        if ((recipient.VID == addr_node) && (recipient.status == 2)) {\n            // set recipient as Committed\n            recipient.uid += 1;\n            recipient.status = 3;\n            return true;\n        }\n        return false;\n    }\n\n    /*\n\tFunction: service payment to transfer balance and re-initialize state.\n\t*/\n    function service_payment(address addr_node) public returns (bool) {\n        //check if both provider and recipient are Confirmed\n        if ((provider.status == 3) && (recipient.status == 3)) {\n            if ((provider.VID == addr_node) || (recipient.VID == addr_node)) {\n                // ---------- transfer time currency -----------------\n                // 1) add time to provider's account\n                TB_account[provider.VID].uid += 1;\n                TB_account[provider.VID].balance += dealer.balance;\n                // 2) substract time from recipient's account\n                TB_account[recipient.VID].uid += 1;\n                TB_account[recipient.VID].balance -= dealer.balance;\n\n                // reset dealer balance\n                dealer.uid += 1;\n                dealer.balance = 0;\n\n                // Reset provider data\n                provider.uid += 1;\n                provider.VID = address(0);\n                provider.serviceInfo = \"\";\n                provider.status = 0;\n\n                // Reset recipient data\n                recipient.uid += 1;\n                recipient.VID = address(0);\n                recipient.serviceInfo = \"\";\n                recipient.status = 0;\n\n                return true;\n            }\n        }\n        return false;\n    }\n}\n",
  "sourcePath": "/Users/zhezhai/VscodeProjects/BlockChain/Time_Banking/contract_dev/contracts/SrvExchange.sol",
  "compiler": {
    "name": "solc",
    "version": "0.4.18+commit.9cf6e910.Emscripten.clang"
  },
  "schemaVersion": "3.2.2",
  "updatedAt": "2021-03-21T15:19:10.727Z",
  "networkType": "ethereum",
  "devdoc": {
    "methods": {}
  },
  "userdoc": {
    "methods": {}
  }
}